:020000020000FC
:02000000FFC03F
:100200000FEF00933D000FE300933E0064D071D0E8
:10021000A0E0B0E2C0E0D0E20091A80602FF2AC050
:10022000109108061093440603FDF6CF0CE90093E5
:10023000260800E000932708002700932008009379
:10024000210805E00093000800910C0800FFFCCF96
:1002500000E00093000801E000930C080091A8065C
:1002600003FDDACF1091080619930091A80603FF49
:10027000FCCFD2CFA0E0B0E20091880601FFCCCF46
:10028000AC17BD07B9F31D911093440629E12093E3
:10029000260826E0209327080027009320080093D3
:1002A000210826E0209300080091880601FF0BC07A
:1002B00020910C0820FFF8CF20E02093000821E0D7
:1002C00020930C08D9CF20E02093000821E0209350
:1002D0000C08A2CFFFCF0F930FEF009341060093BE
:1002E00002060CE00093A20602E0009382060F9142
:1002F00008950F930CE90093260800E00093270867
:040300000F910895BC
:00000001FF
