:020000020000FC
:02000000FFC03F
:020038006AC19B
:100200000FEF00933D000FE300933E0017D021D085
:1002100039D05ED071D07894C0E0D0E600E00ABF5B
:100220000091080600FF05C001E80093010719913D
:10023000F7CF01E000930207F3CFFFCF0F930FE357
:100240000F9301E0009302060F9100933F000F917E
:1002500008950F930FE30F9303ED0093E50604E079
:100260000093E60601E4009301070093060707EDFB
:100270000093E1060FEF009321070F9100933F00D9
:100280000F9108950F930FE30F9301E00093400443
:100290000DE10093500400E20093520401E000934A
:1002A000530405E10093580400E600935A0400E06B
:1002B00000935B0409E10093580400E800935A049A
:1002C00000E000935B040F9100933F000F910895AD
:1002D0000F930FE30F930CED0093260805E00093B6
:1002E000270801E00093060807E0009300080F913B
:1002F00000933F000F9108950F930FE30F9301E0D8
:100300000093A2000F9100933F000F9118950F9357
:100310000FE30F9301E000930C0801E80093070737
:0A0320000F9100933F000F91189514
:00000001FF
