:100000000C94FE000C9424010C9424010C94240103
:100010000C9424010C9424010C9424010C942401CC
:100020000C9424010C9424010C9424010C942401BC
:100030000C9424010C9424010C9424010C942401AC
:100040000C9424010C9424010C9424010C9424019C
:100050000C9424010C9424010C9424010C9424018C
:100060000C9424010C9424010C9424010C9424017C
:100070000C9424010C9424010C9424010C9424016C
:100080000C9424010C9424010C9424010C9424015C
:100090000C9424010C9424010C9424010C9424014C
:1000A0000C9424010C9424010C9424010C9424013C
:1000B0000C9424010C9424010C9424010C9424012C
:1000C0000C9424010C9424010C9424010C9424011C
:1000D0000C9424010C9424010C9424010C9424010C
:1000E0000C9424010C9424010C9424010C942401FC
:1000F0000C9424010C9424010C9424010C942401EC
:100100000C9424010C9424010C9424010C942401DB
:100110000C9424010C9424010C9424010C942401CB
:100120000C9424010C9424010C9424010C942401BB
:100130000C9424010C9424010C9424010C942401AB
:100140000C9424010C9424010C9424010C9424019B
:100150000C9424010C9424010C9424010C9424018B
:100160000C9424010C9424010C9424010C9424017B
:100170000C9424010C9424010C9424010C9424016B
:100180000C9424010C9424010C9424010C9424015B
:100190000C9424010C9424010C9424010C9424014B
:1001A0000C9424010C9424010C9424010C9424013B
:1001B0000C9424010C9424010C9424010C9424012B
:1001C0000C9424010C9424010C9424010C9424011B
:1001D0000C9424010C9424010C9424010C9424010B
:1001E0000C9424010C9424010C9424010C942401FB
:1001F0000C9424010C9424010C94240111241FBE9E
:10020000CFEFCDBFDFE3DEBF00E00CBF18BE19BEED
:100210001ABE1BBE14E2A0E0B0E2ECE1FBE000E09D
:100220000BBF02C007900D92A430B107D9F71BBED7
:1002300024E2A4E0B4E201C01D92A830B207E1F7C5
:100240000E943C010C948C050C9400008F9382E07A
:10025000809350008091510081FFFCCF88ED809306
:10026000340081E08093400088ED8093340080E08A
:10027000809341008F910895CF93DF931F92CDB764
:10028000DEB70E9426010E94D0020E9420020E9436
:1002900037020E944D020E946A0280E496E020E844
:1002A000FC01218380E496E020E8FC01258380EABC
:1002B00099E0FC01818188230CF0ADC00E94FD0211
:1002C00089838981833719F08981833559F4909125
:1002D000042481E0892780930424809104240E94CF
:1002E0006C0399C08981853619F08981853439F488
:1002F00060E070ED82E894E40E940F038CC0898175
:10030000843339F46CE577E98AE894E40E940F03BA
:1003100082C08981823719F08981823539F46FE191
:1003200075ED82E994E40E940F0375C089818533DD
:1003300039F462E570E98BE994E40E940F036BC025
:100340008981843719F08981843539F462E570ED4B
:1003500084EA94E40E940F035EC08981893719F012
:100360008981893539F46FE17DE98EEA94E40E9450
:100370000F0351C08981873339F46CE57FEF88EB37
:1003800094E40E940F0347C08981853719F0898161
:10039000853539F46CE57FEF83EC94E40E940F031C
:1003A0003AC08981883339F46AE077EA8FEC94E4C3
:1003B0000E940F0330C08981893619F08981893400
:1003C00039F460E070E08CED94E40E940F0323C0E8
:1003D0008981893339F46FE175E189EE94E40E94F3
:1003E0000F0319C089818F3619F089818F3439F450
:1003F00066EF70EF86EF94E40E940F030CC08981D2
:10040000803719F08981803531F460E070ED82E049
:1004100095E40E940F0380E498E0FC018485882F16
:1004200090E081709927892B09F441CF80E498E00E
:1004300021E0FC01248780E098E0FC01108237CFA6
:10044000CF93DF93CDB7DEB780E093E020E2FC01ED
:10045000218380E093E028E1FC01228380E093E0A7
:1004600029E0FC0120830000DF91CF910895CF9314
:10047000DF93CDB7DEB780E098E0FC0110A211A2B7
:1004800080E098E021E0FC01248780E098E0FC0116
:1004900010820000DF91CF910895CF93DF93CDB705
:1004A000DEB780E498E0FC0110A211A280E498E09D
:1004B00027E436E8FC0126A337A380E498E021E096
:1004C000FC01248780E498E0FC0110820000DF91A9
:1004D000CF910895CF93DF93CDB7DEB780E091E061
:1004E00020E031E0F90120812064FC01208380E0DC
:1004F00091E020E032E0FC01248B358B80E091E03C
:10050000FC01168A80E091E029E5FC01228B80E065
:1005100091E025E2FC01208B80E891E020ECFC01D9
:10052000208380E091E021E0FC01238B80E091E0DA
:1005300021E030E2FC01208F80E091E021E030E218
:10054000232F3327FC01218F20E031E081E090E26E
:10055000CC01A0E0B0E0CD01AA27BB27F901828F32
:1005600080E091E02AE1FC01248F80E091E023E02B
:10057000FC01258F80E091E0FC01168E80E091E087
:1005800020E031E0F90120892068FC01208B80E027
:1005900091E020E8FC0120830000DF91CF910895D5
:1005A000CF93DF93CDB7DEB780E696E028E0FC017D
:1005B000258380E696E028E0FC01218380E696E032
:1005C00024E0FC01228380EA99E020910020FC01D4
:1005D000268380EA99E020910524FC01278380EAA4
:1005E00099E023E0FC01258380EA99E028E1FC0101
:1005F00024830000DF91CF910895CF93DF93CDB78F
:10060000DEB7000080EA99E0FC0181818823D4F7FD
:1006100080EA99E0FC018081DF91CF910895CF932A
:10062000DF9300D01F92CDB7DEB769837A838B83C7
:100630009C8320E030E040E853E469817A818B813B
:100640009C810E941F05DC01CB019C01AD0160E093
:1006500074E284EF9BE40E942D04DC01CB0120E0D6
:1006600030E040E85FE3BC01CD010E94C003DC0143
:10067000CB01BC01CD010E949F04DC01CB01809322
:1006800006249093072480E098E02091062430917E
:100690000724FC0126A337A380E098E0FC0110A208
:1006A00011A280E098E021E0FC01208380E498E042
:1006B000FC0110A211A280E498E021E0FC01248753
:1006C00080E498E026E0FC01208300002496CDBF62
:1006D000DEBFDF91CF910895CF93DF931F92CDB707
:1006E000DEB7898380E091E020E031E0F9012089E4
:1006F0002F77FC01208B8981882339F481E090E2F7
:10070000809301249093022406C081E092E28093BA
:1007100001249093022480E091E020910124309103
:100720000224FC01208F80E091E02091012430918F
:100730000224232F3327FC01218F20E031E0809118
:10074000012490910224CC01A0E0B0E0CD01AA27C1
:10075000BB27F901828F80E091E020E032E0FC01CC
:10076000248B358B80E091E020E031E0F901208995
:100770002068FC01208B00000F90DF91CF9108953D
:100780005058BB27AA270E94D8030C94E5040E9466
:10079000D70438F00E94DE0420F039F49F3F19F4AA
:1007A00026F40C94D4040EF4E095E7FB0C94CE04EC
:1007B000E92F0E94F60458F3BA17620773078407FB
:1007C000950720F079F4A6F50C9418050EF4E09541
:1007D0000B2EBA2FA02D0B01B90190010C01CA01FB
:1007E000A0011124FF27591B99F0593F50F4503EA6
:1007F00068F11A16F040A22F232F342F4427585F98
:10080000F3CF469537952795A795F0405395C9F7AF
:100810007EF41F16BA0B620B730B840BBAF0915067
:10082000A1F0FF0FBB1F661F771F881FC2F70EC006
:10083000BA0F621F731F841F48F4879577956795D9
:10084000B795F7959E3F08F0B0CF9395880F08F0C5
:100850009927EE0F9795879508950E9441040C946F
:10086000E5040E94DE0458F00E94D70440F029F409
:100870005F3F29F00C94CE0451110C9419050C948F
:10088000D4040E94F60468F39923B1F3552391F33D
:10089000951B550BBB27AA2762177307840738F0EF
:1008A0009F5F5F4F220F331F441FAA1FA9F335D04C
:1008B0000E2E3AF0E0E832D091505040E695001C00
:1008C000CAF72BD0FE2F29D0660F771F881FBB1FBA
:1008D000261737074807AB07B0E809F0BB0B802D98
:1008E000BF01FF2793585F4F3AF09E3F510578F0C4
:1008F0000C94CE040C9419055F3FE4F3983ED4F3B6
:10090000869577956795B795F7959F5FC9F7880F97
:10091000911D9695879597F90895E1E0660F771FE9
:10092000881FBB1F621773078407BA0720F0621B7A
:10093000730B840BBA0BEE1F88F7E09508950E94A5
:10094000FE0488F09F5798F0B92F9927B751B0F05F
:10095000E1F0660F771F881F991F1AF0BA95C9F743
:1009600014C0B13091F00E941805B1E008950C94C4
:100970001805672F782F8827B85F39F0B93FCCF377
:10098000869577956795B395D9F73EF490958095C0
:10099000709561957F4F8F4F9F4F089597F99F678F
:1009A00080E870E060E008959FEF80EC08950024F7
:1009B0000A941616170618060906089500240A94C4
:1009C00012161306140605060895092E0394000C4A
:1009D00011F4882352F0BB0F40F4BF2B11F460FFD9
:1009E00004C06F5F7F4F8F4F9F4F089557FD905802
:1009F000440F551F59F05F3F71F04795880F97FBE3
:100A0000991F61F09F3F79F087950895121613069C
:100A10001406551FF2CF4695F1DF08C016161706CB
:100A20001806991FF1CF8695710561050894089500
:100A3000E894BB2766277727CB0197F908950E9492
:100A400032050C94E5040E94D70438F00E94DE04BD
:100A500020F0952311F00C94CE040C94D4041124AE
:100A60000C9419050E94F60470F3959FC1F3950F3D
:100A700050E0551F629FF001729FBB27F00DB11D22
:100A8000639FAA27F00DB11DAA1F649F6627B00DB2
:100A9000A11D661F829F2227B00DA11D621F739F9B
:100AA000B00DA11D621F839FA00D611D221F749FA9
:100AB0003327A00D611D231F849F600D211D822FF0
:100AC000762F6A2F11249F5750409AF0F1F0882317
:100AD0004AF0EE0FFF1FBB1F661F771F881F915044
:100AE0005040A9F79E3F510580F00C94CE040C9421
:100AF00019055F3FE4F3983ED4F3869577956795A3
:100B0000B795F795E7959F5FC1F7FE2B880F911D6D
:0C0B10009695879597F90895F894FFCF0B
:100B1C00CF0008320864089608C808FA082C095E49
:100B2C00098F09C009F109220A520A820AB10AE0A6
:100B3C000A0F0B3D0B6B0B980BC50BF10B1C0C47E9
:100B4C000C710C9A0CC30CEB0C120D390D5F0D8350
:100B5C000DA70DCA0DED0D0E0E2E0E4E0E6C0E8A3F
:100B6C000EA60EC10EDC0EF50E0D0F240F3A0F4F14
:100B7C000F630F760F870F980FA70FB50FC20FCD0E
:100B8C000FD80FE10FE90FF00FF50FF90FFD0FFE66
:100B9C000FFF0FFE0FFD0FF90FF50FF00FE90FE12F
:100BAC000FD80FCD0FC20FB50FA70F980F870F7669
:100BBC000F630F4F0F3A0F240F0D0FF50EDC0EC104
:100BCC000EA60E8A0E6C0E4E0E2E0E0E0EED0DCACD
:100BDC000DA70D830D5F0D390D120DEB0CC30C9A87
:100BEC000C710C470C1C0CF10BC50B980B6B0B3DD3
:100BFC000B0F0BE00AB10A820A520A220AF109C051
:100C0C00098F095E092C09FA08C80896086408328D
:100C1C00080008CD079B07690737070507D306A10E
:100C2C000670063F060E06DD05AD057D054E051F5B
:100C3C0005F004C204940467043A040E04E303B8F8
:100C4C00038E0365033C031403ED02C602A0027C71
:100C5C0002580235021202F101D101B10193017562
:100C6C000159013E0123010A01F200DB00C500B06D
:100C7C00009C0089007800670058004A003D003253
:100C8C000027001E0016000F000A000600020001DB
:100C9C000000000100020006000A000F0016001EF2
:100CAC0000270032003D004A005800670078008998
:100CBC00009C00B000C500DB00F2000A0123013EDD
:100CCC0001590175019301B101D101F101120235F4
:100CDC000258027C02A002C602ED0214033C03651A
:100CEC00038E03B803E3030E043A0467049404C2AE
:100CFC0004F0041F054E057D05AD05DD050E063F10
:100D0C00067006A106D3060507370769079B07CDB2
:100D1C000700002000400060008000A000C000E040
:100D2C000000012001400160018001A001C001E030
:100D3C000100022002400260028002A002C002E018
:100D4C000200032003400360038003A003C003E000
:100D5C000300042004400460048004A004C004E0E8
:100D6C000400052005400560058005A005C005E0D0
:100D7C000500062006400660068006A006C006E0B8
:100D8C000600072007400760078007A007C007E0A0
:100D9C000700081F083F085F087F089F08BF08DF8F
:100DAC0008FF081F093F095F097F099F09BF09DF79
:100DBC0009FF091F0A3F0A5F0A7F0A9F0ABF0ADF61
:100DCC000AFF0A1F0B3F0B5F0B7F0B9F0BBF0BDF49
:100DDC000BFF0B1F0C3F0C5F0C7F0C9F0CBF0CDF31
:100DEC000CFF0C1F0D3F0D5F0D7F0D9F0DBF0DDF19
:100DFC000DFF0D1F0E3F0E5F0E7F0E9F0EBF0EDF01
:100E0C000EFF0E1F0F3F0F5F0F7F0F9F0FBF0FDFE8
:100E1C000FFF0FDF0FBF0F9F0F7F0F5F0F3F0F1FD6
:100E2C000FFF0EDF0EBF0E9F0E7F0E5F0E3F0E1FCD
:100E3C000EFF0DDF0DBF0D9F0D7F0D5F0D3F0D1FC5
:100E4C000DFF0CDF0CBF0C9F0C7F0C5F0C3F0C1FBD
:100E5C000CFF0BDF0BBF0B9F0B7F0B5F0B3F0B1FB5
:100E6C000BFF0ADF0ABF0A9F0A7F0A5F0A3F0A1FAD
:100E7C000AFF09DF09BF099F097F095F093F091FA5
:100E8C0009FF08DF08BF089F087F085F083F081F9D
:100E9C00080008E007C007A007800760074007208C
:100EAC00070007E006C006A0068006600640062084
:100EBC00060006E005C005A005800560054005207C
:100ECC00050005E004C004A0048004600440042074
:100EDC00040004E003C003A003800360034003206C
:100EEC00030003E002C002A0028002600240022064
:100EFC00020002E001C001A001800160014001205C
:100F0C00010001E000C000A0008000600040002053
:040F1C0000012000B0
:00000001FF
