:020000020000FC
:02000000FFC03F
:100200000FEF00933D000FE300933E005AD067D0FC
:10021000A0E0B0E2C0E0D0E20091A80602FF25C055
:10022000109108061093440603FDF6CF0CE90093E5
:10023000260800E00093270805E0009300080091DD
:100240000C0800FFFCCF00E00093000801E00093E1
:100250000C080091A80603FDDFCF10910806199342
:100260000091A80603FFFCCFD7CFA0E0B0E2009139
:10027000880601FFD1CFAC17BD07B9F31D911093CC
:10028000440629E12093260826E02093270826E04B
:10029000209300080091880601FF0BC020910C08F4
:1002A00020FFF8CF20E02093000821E020930C08E5
:1002B000DECF20E02093000821E020930C08ACCF93
:1002C000FFCF0F930FEF00934106009302060CE05F
:1002D0000093A20602E0009382060F9108950F9307
:1002E0000CE90093260800E0009327080F91089579
:00000001FF
