S00C00004C6162362E73726563D3
S11300000C94FE000C9424010C94B4040C9424016C
S11300100C9424010C9424010C9424010C942401C8
S11300200C9424010C9424010C9424010C942401B8
S11300300C9424010C9424010C94FC040C942401CD
S11300400C9424010C9424010C9424010C94240198
S11300500C9424010C9424010C9424010C94240188
S11300600C9424010C9424010C9424010C94240178
S11300700C9424010C9424010C9424010C94240168
S11300800C9424010C9424010C9424010C94240158
S11300900C9424010C9424010C9424010C94240148
S11300A00C9424010C9424010C9424010C94240138
S11300B00C9424010C9424010C9424010C94240128
S11300C00C9424010C9424010C9424010C94240118
S11300D00C9424010C9424010C9424010C94240108
S11300E00C9424010C9424010C9424010C942401F8
S11300F00C9424010C9424010C9424010C942401E8
S11301000C9424010C9424010C9424010C942401D7
S11301100C9424010C9424010C9424010C942401C7
S11301200C9424010C9424010C9424010C942401B7
S11301300C9424010C9424010C9424010C942401A7
S11301400C9424010C9424010C9424010C94240197
S11301500C9424010C9424010C9424010C94240187
S11301600C9424010C9424010C9424010C94240177
S11301700C9424010C9424010C9424010C94240167
S11301800C9424010C9424010C9424010C94240157
S11301900C9424010C9424010C9424010C94240147
S11301A00C9424010C9424010C9424010C94240137
S11301B00C9424010C9424010C9424010C94240127
S11301C00C9424010C9424010C9424010C94240117
S11301D00C9424010C9424010C9424010C94240107
S11301E00C9424010C9424010C9424010C942401F7
S11301F00C9424010C9424010C94240111241FBE9A
S1130200CFEFCDBFDFE3DEBF00E00CBF18BE19BEE9
S11302101ABE1BBE10E2A0E0B0E2E0E7FAE000E0A4
S11302200BBF02C007900D92AC32B107D9F71BBEC9
S113023020E2ACE2B0E201C01D92AA33B207E1F7BA
S11302400E94B2010C9436050C940000CF93DF9306
S1130250CDB7DEB780E696E028E0FC01258380E692
S113026096E028E0FC01218380E696E024E0FC018E
S1130270228380EA99E02EEAFC01268380EA99E051
S113028020E9FC01278380EA99E023E0FC0125832F
S113029080EA99E028E1FC0124830000DF91CF91FA
S11302A00895CF93DF931F92CDB7DEB7898380EA99
S11302B096E020E1FC01268380EC9BE02981206804
S11302C0FC012383000080EC9BE0FC0182818823F5
S11302D0D4F780EC9BE027E3FC012383000080EC4F
S11302E09BE0FC0182818823D4F780EA96E020E138
S11302F0FC01258380EC9BE0FC0183810F90DF915E
S1130300CF910895CF93DF931F921F92CDB7DEB79D
S113031089836A8380EA96E020E1FC01268380ECED
S11303209BE02981FC012383000080EC9BE0FC011D
S113033082818823D4F780EC9BE02A81FC0123830B
S1130340000080EC9BE0FC0182818823D4F780EAE2
S113035096E020E1FC01258300000F900F90DF91CF
S1130360CF910895CF93DF93CDB7DEB70E94DA0320
S11303700E94F6030E9480040E949E040E942601AB
S113038081E297E020E8FC01208385E297E020E801
S1130390FC0120837894809139208130E1F7109218
S11303A02C2010922D2010922E2010922F2010928B
S11303B0302010923120109232201092332010926B
S11303C0342010923520109236201092372088E283
S11303D00E945101282F30E040E050E080912C2011
S11303E090912D20A0912E20B0912F20822B932B21
S11303F0A42BB52B80932C2090932D20A0932E20FA
S1130400B0932F2089E20E945101282F30E040E070
S113041050E080912C2090912D20A0912E20B0911D
S11304202F20822B932BA42BB52B80932C209093DD
S11304302D20A0932E20B0932F2080912C209091DA
S11304402D20A0912E20B0912F209F77AA27BB2783
S113045080932C2090932D20A0932E20B0932F20B6
S11304608AE20E945101282F30E040E050E0809160
S1130470302090913120A0913220B0913320822BF2
S1130480932BA42BB52B8093302090933120A093F1
S11304903220B09333208BE20E945101282F30E0A8
S11304A040E050E08091302090913120A0913220A2
S11304B0B0913320822B932BA42BB52B8093302027
S11304C090933120A0933220B09333208091302038
S11304D090913120A0913220B09133209F77AA27A8
S11304E0BB278093302090933120A0933220B09387
S11304F033208CE20E945101282F30E040E050E08C
S11305008091342090913520A0913620B0913720ED
S1130510822B932BA42BB52B8093342090933520DE
S1130520A0933620B09337208DE20E945101282FEA
S113053030E040E050E08091342090913520A0914B
S11305403620B0913720822B932BA42BB52B80938C
S1130550342090933520A0933620B0933720809197
S1130560342090913520A0913620B09137209F7788
S1130570AA27BB278093342090933520A09336205C
S1130580B093372020912C2030912D2040912E20A3
S113059050912F208091302090913120A0913220D1
S11305A0B091332071E082179307A407B50708F0D0
S11305B070E020912C2030912D2040912E205091DC
S11305C02F208091342090913520A0913620B09135
S11305D0372061E082179307A407B50708F060E0AD
S11305E0872F8623282F30E080912C2090912D2076
S11305F0A0912E20B0912F2041E080349105A105D7
S1130600B10508F440E0842F90E082239323892BE2
S113061091F080E090E20E9457048EE090E20E9404
S113062057041092382080E093E022E333E0FC0189
S1130630208F318FB3C020913020309131204091F0
S11306403220509133208091342090913520A09114
S11306503620B091372071E082179307A407B507BD
S113066008F070E020913020309131204091322008
S11306705091332080912C2090912D20A0912E20F8
S1130680B0912F2061E082179307A407B50708F003
S113069060E0872F8623282F30E0809130209091CE
S11306A03120A0913220B091332041E08034910573
S11306B0A105B10508F440E0842F90E08223932340
S11306C0892B99F081E190E20E9457048EE090E238
S11306D00E94570481E08093382080E093E020EE6C
S11306E03AE0FC01208F318F59C0209134203091A1
S11306F035204091362050913720809130209091C0
S11307003120A0913220B091332071E082179307F9
S1130710A407B50708F070E020913420309135200B
S1130720409136205091372080912C2090912D209B
S1130730A0912E20B0912F2061E082179307A40787
S1130740B50708F060E0872F8623282F30E08091DA
S1130750342090913520A0913620B091372041E08B
S113076080349105A105B10508F440E0842F90E0A0
S113077082239323892B91F081E290E20E94570413
S11307808EE090E20E94570482E08093382080E05B
S113079093E027EB3EE0FC01208F318F109239204B
S11307A080E496E020E436E0F90122852064FC012F
S11307B02287F1CDCF93DF93CDB7DEB780EA96E001
S11307C020E9FC01258380EA96E020EBFC012183EB
S11307D080EA96E020E4FC01228380EC9BE02DE596
S11307E0FC0120830000DF91CF910895CF93DF9324
S11307F01F921F92CDB7DEB761E082E10E948201B1
S113080019821A8205C089819A81019689839A8303
S113081089819A81803D9740B0F360E282E10E9431
S1130820820161E08DE00E94820160E088E10E9423
S1130830820160E580E10E94820180E496E020E488
S1130840FC01228380E496E023E0FC01268B80E413
S113085096E021E0FC01218780E496E020E4FC019D
S1130860228780EA90E021E0FC01228300000F90BF
S11308700F90DF91CF910895CF93DF931F92CDB75F
S1130880DEB78983000080EA99E0FC018181882F2A
S113089090E080729927892BB1F380EA99E029814D
S11308A0FC01208300000F90DF91CF910895CF9336
S11308B0DF9300D0CDB7DEB78A839B8319820EC045
S11308C08981882F90E02A813B81820F931FFC014C
S11308D080810E943C0489818F5F89838981882F6C
S11308E090E02A813B81820F931FFC018081882341
S11308F039F700002396CDBFDEBFDF91CF91089575
S1130900CF93DF93CDB7DEB780E098E026ED3AE0F1
S1130910FC0126A337A380E098E021E0FC012083BA
S113092080E098E021E0FC01268380EA90E021E069
S1130930FC0122830000DF91CF910895CF93DF93D0
S1130940CDB7DEB780E093E028E1FC01228380E0AC
S113095093E0FC01118280E093E025E0FC01208318
S11309600000DF91CF9108951F920F9200903F00F5
S11309700F921124009038000F92109238000090CA
S11309803A000F9210923A0000903B000F9210929E
S11309903B002F933F938F939F93EF93FF93CF93BA
S11309A0DF93CDB7DEB781E08093392080E496E011
S11309B020E436E0F90122852F7BFC01228780E4C4
S11309C096E021E0FC0124870000DF91CF91FF91A4
S11309D0EF919F918F913F912F910F9000923B0047
S11309E00F9000923A000F90009238000F900092FE
S11309F03F000F901F9018951F920F9200903F0098
S1130A000F921124009038000F9210923800009039
S1130A103A000F9210923A0000903B000F9210920D
S1130A203B002F938F939F93EF93FF93CF93DF9389
S1130A30CDB7DEB780E297E020E8FC012383000015
S1130A40DF91CF91FF91EF919F918F912F910F9013
S1130A5000923B000F9000923A000F9000923800F1
S1130A600F9000923F000F901F901895F894FFCFBD
S1130A70466C6174206F6E207461626C65000D0AAF
S1130A80004F4D422070696E73206F6E20746F703A
S10F0A9000555342206F6E20746F7000FC
S9030000FC
