:020000020000FC
:02000000FFC03F
:100200000FE000936E060FEF00933D000FE30093A5
:100210003E0000E0009300060FEF0093400600E769
:10022000009360060FEF0093260900E00093270972
:1002300000E0009328090093290900932A090093FC
:100240002B0900932C0900932D0900E400937406F8
:10025000009375060093760603E70093010901E019
:100260000093000900910806009344060091A80637
:1002700002FF0AD00091A80603FF1ED00091880655
:1002800000FF0ED0EFCFFFCF0F931F930091080612
:100290000093280910E0109329091F910F910895E8
:1002A0000F931F930091080600932A0910E0109302
:1002B0002B091F910F9108950F931F93009108062A
:1002C00000932C0910E010932D091F910F910895B0
:00000001FF
