:100000000C94FE000C9416010C94D6010C9416016D
:100010000C9416010C9416010C9416010C94160104
:100020000C9416010C9416010C9416010C941601F4
:100030000C9416010C9416010C9416010C941601E4
:100040000C9416010C9416010C9416010C941601D4
:100050000C9416010C9416010C9416010C941601C4
:100060000C9416010C9416010C9416010C941601B4
:100070000C9416010C9416010C9416010C941601A4
:100080000C9416010C9416010C9416010C94160194
:100090000C9416010C9416010C9416010C94160184
:1000A0000C9416010C9416010C9416010C94160174
:1000B0000C9416010C9416010C9416010C94160164
:1000C0000C9416010C9416010C9416010C94160154
:1000D0000C9416010C9416010C9416010C94160144
:1000E0000C9416010C9416010C9416010C94160134
:1000F0000C9416010C9416010C9416010C94160124
:100100000C9416010C9416010C9416010C94160113
:100110000C9416010C9416010C9416010C94160103
:100120000C9416010C9416010C9416010C941601F3
:100130000C9416010C9416010C9416010C941601E3
:100140000C9416010C9416010C9416010C941601D3
:100150000C9416010C9416010C9416010C941601C3
:100160000C9416010C9416010C9416010C941601B3
:100170000C9416010C9416010C9416010C941601A3
:100180000C9416010C9416010C9416010C94160193
:100190000C9416010C9416010C9416010C94160183
:1001A0000C9416010C9416010C9416010C94160173
:1001B0000C9416010C9416010C9416010C94160163
:1001C0000C9416010C9416010C9416010C94160153
:1001D0000C9416010C9416010C9416010C94160143
:1001E0000C9416010C9416010C9416010C94160133
:1001F0000C9416010C9416010C94160111241FBEC8
:10020000CFEFCDBFDFE3DEBF00E00CBF18BE19BEED
:100210001ABE1BBE20E2A0E0B0E201C01D92A730D2
:10022000B207E1F70E94A5010C94FB010C940000B9
:10023000E0E6F6E088E08583818384E08283E0EA7B
:10024000F9E08BE0868380E9878383E0858388E11A
:10025000848308959091A10995FFFCCF8093A00914
:10026000089590E19093A60680688093C30B8091D7
:10027000C20B8823E4F787E38093C30B8091C20B02
:100280008823E4F780E18093A5068091C30B08954D
:1002900090E19093A6068093C30B8091C20B8823B4
:1002A000E4F76093C30B8091C20B8823E4F780E1ED
:1002B0008093A5060895E0EAF6E080E9858380EB67
:1002C000818380E482838DE58093C00B089561E093
:1002D00082E10E94480180E090E001C00196803DEB
:1002E00027E09207D8F360E282E10E94480161E0D2
:1002F0008DE00E94480160E088E10E94480160E5CD
:1003000080E10E944801E0E4F6E090E4928383E01B
:10031000868B81E0818792878093A20008950F9356
:100320001F93CF93DF938C01D62FC0E007C0F80155
:10033000EC0FF11D80810E942A01CF5FCD17B8F329
:10034000DF91CF911F910F9108950E945B010E9450
:1003500067010E9418017894809106208130E1F7AE
:1003600088E20E943101C0E0D0E2888389E20E94E5
:10037000310189838AE20E9431018A838BE20E94E3
:1003800031018B838CE20E9431018C838DE20E94CB
:1003900031018D8366E0CE010E948F01109206200C
:1003A000E0E4F6E0828580648287D6CF1F920F92C8
:1003B0000FB60F92112408B60F9218BE0BB60F920B
:1003C0001BBE8F939F93EF93FF9391E09093062032
:1003D000E0E4F6E082858F7B82879487FF91EF913E
:1003E0009F918F910F900BBE0F9008BE0F900FBE84
:0A03F0000F901F901895F894FFCFAE
:00000001FF
