:020000020000FC
:02000000FFC03F
:0201A00091C00C
:0201B00098C0F5
:100200000FEF00933D000FE300933E00442710D012
:1002100038D043D051D0789400910C0900FFFCCF26
:1002200000E40093670601E000930C09F5CFFFCFCF
:100230000F9304E00093A2060FEF0093410600E441
:100240000093610600E4009350060093510600936A
:1002500052060093530600935406009355060093EC
:100260005606009357060091B206087F026000937D
:10027000B20601E00093A90604E00093AA060F91DC
:1002800008950F9306EE009326090DE200932709C7
:1002900004E0009300090F9108950F9300E100938B
:1002A000260B07E20093270B01E00093060B00E00A
:1002B0000093000B0F9108950F9301E00093A200AB
:1002C0000F9108950F9300913F000F9300E000936A
:1002D000A90604E00093000B0F9100933F000F91DB
:1002E00018950F9300913F000F9300E00093000BCF
:1002F00000270093200B0093210B01E000930C0BCF
:100300000091A80602FD06C04F3F439509F444271B
:100310004093440601E00093AC0601E00093A90677
:0A0320000F9100933F000F91189514
:00000001FF
