S00C00006C6162372E73726563B2
S11300000C94FE000C9424010C9424010C942401FF
S11300100C9424010C9424010C9424010C942401C8
S11300200C9424010C9424010C9424010C942401B8
S11300300C9424010C9424010C9424010C942401A8
S11300400C9424010C9424010C9424010C94240198
S11300500C9424010C9424010C9424010C94240188
S11300600C9424010C9424010C9424010C94240178
S11300700C9424010C9424010C9424010C94240168
S11300800C9424010C9424010C9424010C94240158
S11300900C9424010C9424010C9424010C94240148
S11300A00C9424010C9424010C9424010C94240138
S11300B00C9424010C9424010C9424010C94240128
S11300C00C9424010C9424010C9424010C94240118
S11300D00C9424010C9424010C9424010C94240108
S11300E00C9424010C9424010C9424010C942401F8
S11300F00C9424010C9424010C9424010C942401E8
S11301000C9424010C9424010C9424010C942401D7
S11301100C9424010C9424010C9424010C94EE01FD
S11301200C9424010C9424010C9424010C942401B7
S11301300C9424010C9424010C9424010C942401A7
S11301400C9424010C9424010C9424010C94240197
S11301500C9424010C9424010C9424010C94240187
S11301600C942D020C9424010C9424010C9424016D
S11301700C9424010C9424010C9424010C94240167
S11301800C9424010C9424010C9424010C94240157
S11301900C9424010C9424010C9424010C94240147
S11301A00C9424010C9424010C9424010C94240137
S11301B00C9424010C9424010C9424010C94240127
S11301C00C9424010C9424010C9424010C94240117
S11301D00C9424010C9424010C9424010C94240107
S11301E00C9424010C9424010C9424010C942401F7
S11301F00C9424010C9424010C94240111241FBE9A
S1130200CFEFCDBFDFE3DEBF00E00CBF18BE19BEE9
S11302101ABE1BBE10E2A0E0B0E2EAEFF4E000E098
S11302200BBF02C007900D92A230B107D9F71BBED5
S113023020E2A2E0B0E201C01D92A630B207E1F7CD
S11302400E9426010C947B020C940000CF93DF9350
S11302501F921F92CDB7DEB70E9449010E94670129
S11302600E949F017894809104208823E1F31092E6
S11302700420809102209091032089839A838981AC
S11302800E94D30189819A81892F99270E94D301E1
S1130290EACFCF93DF93CDB7DEB780E098E02CE4CC
S11302A036E0FC0126A337A380E098E024E0FC01BB
S11302B0208380EA90E021E0FC01228380E891E041
S11302C020ECFC0120830000DF91CF910895CF93AF
S11302D0DF93CDB7DEB780E092E020E3FC01228318
S11302E080E092E020E1FC01218380E092E027E0BD
S11302F0FC01248380E092E02AE0FC0121A380E059
S113030092E0FC0110A280E092E020E032E0F901EA
S113031020A12360FC0120A380E092E021E0FC0105
S113032022A380E092E021E0FC01238380E092E0BC
S113033021E0FC0120830000DF91CF910895CF9349
S1130340DF93CDB7DEB780E696E028E0FC01258395
S113035080E696E028E0FC01218380E696E020E137
S1130360FC01228380EA99E020910020FC0126838D
S113037080EA99E0209101202295207FFC012783C7
S113038080EA99E023E3FC01258380EA99E028E1EF
S1130390FC01248380EA99E020E1FC01238300002E
S11303A0DF91CF910895CF93DF931F92CDB7DEB73E
S11303B08983000080EA99E0FC018181882F90E024
S11303C080729927892BB1F380EA99E02981FC0195
S11303D0208300000F90DF91CF9108951F920F9218
S11303E000903F000F921124009038000F92109259
S11303F0380000903A000F9210923A0000903B00AF
S11304000F9210923B008F939F93EF93FF93CF93A0
S1130410DF93CDB7DEB780E092E0FC0184A195A123
S1130420809302209093032081E0809304200000B5
S1130430DF91CF91FF91EF919F918F910F90009257
S11304403B000F9000923A000F90009238000F90FA
S113045000923F000F901F9018951F920F920090EA
S11304603F000F921124009038000F921092380030
S113047000903A000F9210923A0000903B000F92C5
S113048010923B002F938F939F93EF93FF93CF93FF
S1130490DF93CDB7DEB780EA99E0FC0180818093D9
S11304A0052080910520803731F480E092E02AE035
S11304B0FC0121A309C080910520873729F480E03D
S11304C092E028E2FC0121A30000DF91CF91FF918B
S11304D0EF919F918F912F910F9000923B000F907D
S11304E000923A000F90009238000F9000923F0063
S10D04F00F901F901895F894FFCFA9
S10504FA11F9F2
S9030000FC
