:020000020000FC
:02000000B0C08E
:1001600050C000E4009361060FEF00933D000FE3E1
:1001700000933E0014D039D00CD0789400910C0834
:1001800000FFFCCF00E40093670601E000930C0839
:10019000F5CF0F9301E00093A2000F9108950F9304
:1001A00008E10093640608E00093610600E1009313
:1001B00062060BE20093A60901E90093A70903E296
:1001C0000093A5090091A40908610093A40900E126
:1001D0000093A3090F9108950F930091A10905FFC2
:1001E000FCCF1093A0090F9108950F9302E10093A3
:1001F00026080AE70093270805E0009300080F91FE
:1002000008950F9300913F000F931091A009E4DF30
:0A0210000F9100933F000F91189525
:00000001FF
